{
  "_format": "hh-sol-artifact-1",
  "contractName": "Voting",
  "sourceName": "contracts/Voting.sol",
  "abi": [
    {
      "inputs": [],
      "stateMutability": "nonpayable",
      "type": "constructor"
    },
    {
      "inputs": [
        {
          "internalType": "address",
          "name": "owner",
          "type": "address"
        }
      ],
      "name": "OwnableInvalidOwner",
      "type": "error"
    },
    {
      "inputs": [
        {
          "internalType": "address",
          "name": "account",
          "type": "address"
        }
      ],
      "name": "OwnableUnauthorizedAccount",
      "type": "error"
    },
    {
      "anonymous": false,
      "inputs": [
        {
          "indexed": true,
          "internalType": "address",
          "name": "previousOwner",
          "type": "address"
        },
        {
          "indexed": true,
          "internalType": "address",
          "name": "newOwner",
          "type": "address"
        }
      ],
      "name": "OwnershipTransferred",
      "type": "event"
    },
    {
      "anonymous": false,
      "inputs": [
        {
          "indexed": false,
          "internalType": "uint256",
          "name": "proposalId",
          "type": "uint256"
        }
      ],
      "name": "ProposalRegistered",
      "type": "event"
    },
    {
      "anonymous": false,
      "inputs": [
        {
          "components": [
            {
              "internalType": "uint64",
              "name": "cycle",
              "type": "uint64"
            },
            {
              "internalType": "uint32",
              "name": "winningProposalId",
              "type": "uint32"
            },
            {
              "internalType": "uint8",
              "name": "minQuorumPercentage",
              "type": "uint8"
            },
            {
              "internalType": "bool",
              "name": "voteCanceled",
              "type": "bool"
            }
          ],
          "indexed": false,
          "internalType": "struct Voting.Vote",
          "name": "vote",
          "type": "tuple"
        },
        {
          "components": [
            {
              "internalType": "string",
              "name": "title",
              "type": "string"
            },
            {
              "internalType": "string",
              "name": "description",
              "type": "string"
            },
            {
              "internalType": "uint256",
              "name": "voteCount",
              "type": "uint256"
            }
          ],
          "indexed": false,
          "internalType": "struct Voting.Proposal",
          "name": "proposal",
          "type": "tuple"
        }
      ],
      "name": "VoteEnd",
      "type": "event"
    },
    {
      "anonymous": false,
      "inputs": [
        {
          "indexed": false,
          "internalType": "address",
          "name": "voter",
          "type": "address"
        },
        {
          "indexed": false,
          "internalType": "uint256",
          "name": "proposalId",
          "type": "uint256"
        }
      ],
      "name": "Voted",
      "type": "event"
    },
    {
      "anonymous": false,
      "inputs": [
        {
          "indexed": false,
          "internalType": "address",
          "name": "voterAddress",
          "type": "address"
        }
      ],
      "name": "VoterRegistered",
      "type": "event"
    },
    {
      "anonymous": false,
      "inputs": [
        {
          "indexed": false,
          "internalType": "enum Voting.WorkflowStatus",
          "name": "previousStatus",
          "type": "uint8"
        },
        {
          "indexed": false,
          "internalType": "enum Voting.WorkflowStatus",
          "name": "newStatus",
          "type": "uint8"
        }
      ],
      "name": "WorkflowStatusChange",
      "type": "event"
    },
    {
      "inputs": [
        {
          "internalType": "string",
          "name": "_title",
          "type": "string"
        },
        {
          "internalType": "string",
          "name": "_description",
          "type": "string"
        }
      ],
      "name": "addProposal",
      "outputs": [],
      "stateMutability": "nonpayable",
      "type": "function"
    },
    {
      "inputs": [],
      "name": "currentVote",
      "outputs": [
        {
          "internalType": "uint64",
          "name": "cycle",
          "type": "uint64"
        },
        {
          "internalType": "uint32",
          "name": "winningProposalId",
          "type": "uint32"
        },
        {
          "internalType": "uint8",
          "name": "minQuorumPercentage",
          "type": "uint8"
        },
        {
          "internalType": "bool",
          "name": "voteCanceled",
          "type": "bool"
        }
      ],
      "stateMutability": "view",
      "type": "function"
    },
    {
      "inputs": [],
      "name": "endProposalsRegistering",
      "outputs": [],
      "stateMutability": "nonpayable",
      "type": "function"
    },
    {
      "inputs": [],
      "name": "endVotingSession",
      "outputs": [],
      "stateMutability": "nonpayable",
      "type": "function"
    },
    {
      "inputs": [],
      "name": "getProposals",
      "outputs": [
        {
          "components": [
            {
              "internalType": "string",
              "name": "title",
              "type": "string"
            },
            {
              "internalType": "string",
              "name": "description",
              "type": "string"
            },
            {
              "internalType": "uint256",
              "name": "voteCount",
              "type": "uint256"
            }
          ],
          "internalType": "struct Voting.Proposal[]",
          "name": "",
          "type": "tuple[]"
        }
      ],
      "stateMutability": "view",
      "type": "function"
    },
    {
      "inputs": [
        {
          "internalType": "address",
          "name": "_address",
          "type": "address"
        }
      ],
      "name": "getVoter",
      "outputs": [
        {
          "components": [
            {
              "internalType": "bool",
              "name": "isRegistered",
              "type": "bool"
            },
            {
              "internalType": "bool",
              "name": "hasVoted",
              "type": "bool"
            },
            {
              "internalType": "uint64",
              "name": "lastCycleVoted",
              "type": "uint64"
            },
            {
              "internalType": "uint256",
              "name": "votedProposalId",
              "type": "uint256"
            }
          ],
          "internalType": "struct Voting.Voter",
          "name": "",
          "type": "tuple"
        }
      ],
      "stateMutability": "view",
      "type": "function"
    },
    {
      "inputs": [],
      "name": "getWinningProposal",
      "outputs": [
        {
          "components": [
            {
              "internalType": "string",
              "name": "title",
              "type": "string"
            },
            {
              "internalType": "string",
              "name": "description",
              "type": "string"
            },
            {
              "internalType": "uint256",
              "name": "voteCount",
              "type": "uint256"
            }
          ],
          "internalType": "struct Voting.Proposal",
          "name": "",
          "type": "tuple"
        }
      ],
      "stateMutability": "view",
      "type": "function"
    },
    {
      "inputs": [],
      "name": "getWinningQuorum",
      "outputs": [
        {
          "internalType": "uint256",
          "name": "",
          "type": "uint256"
        }
      ],
      "stateMutability": "view",
      "type": "function"
    },
    {
      "inputs": [],
      "name": "getWorkflowStatus",
      "outputs": [
        {
          "internalType": "enum Voting.WorkflowStatus",
          "name": "",
          "type": "uint8"
        }
      ],
      "stateMutability": "view",
      "type": "function"
    },
    {
      "inputs": [],
      "name": "isOwner",
      "outputs": [
        {
          "internalType": "bool",
          "name": "",
          "type": "bool"
        }
      ],
      "stateMutability": "view",
      "type": "function"
    },
    {
      "inputs": [],
      "name": "owner",
      "outputs": [
        {
          "internalType": "address",
          "name": "",
          "type": "address"
        }
      ],
      "stateMutability": "view",
      "type": "function"
    },
    {
      "inputs": [
        {
          "internalType": "uint256",
          "name": "",
          "type": "uint256"
        }
      ],
      "name": "proposals",
      "outputs": [
        {
          "internalType": "string",
          "name": "title",
          "type": "string"
        },
        {
          "internalType": "string",
          "name": "description",
          "type": "string"
        },
        {
          "internalType": "uint256",
          "name": "voteCount",
          "type": "uint256"
        }
      ],
      "stateMutability": "view",
      "type": "function"
    },
    {
      "inputs": [
        {
          "internalType": "address",
          "name": "_address",
          "type": "address"
        }
      ],
      "name": "registerVoter",
      "outputs": [],
      "stateMutability": "nonpayable",
      "type": "function"
    },
    {
      "inputs": [],
      "name": "renounceOwnership",
      "outputs": [],
      "stateMutability": "nonpayable",
      "type": "function"
    },
    {
      "inputs": [],
      "name": "startProposalsRegistering",
      "outputs": [],
      "stateMutability": "nonpayable",
      "type": "function"
    },
    {
      "inputs": [],
      "name": "startVoterRegistration",
      "outputs": [],
      "stateMutability": "nonpayable",
      "type": "function"
    },
    {
      "inputs": [],
      "name": "startVotingSession",
      "outputs": [],
      "stateMutability": "nonpayable",
      "type": "function"
    },
    {
      "inputs": [],
      "name": "tallyVotes",
      "outputs": [],
      "stateMutability": "nonpayable",
      "type": "function"
    },
    {
      "inputs": [
        {
          "internalType": "address",
          "name": "newOwner",
          "type": "address"
        }
      ],
      "name": "transferOwnership",
      "outputs": [],
      "stateMutability": "nonpayable",
      "type": "function"
    },
    {
      "inputs": [
        {
          "internalType": "uint256",
          "name": "proposalId",
          "type": "uint256"
        }
      ],
      "name": "vote",
      "outputs": [],
      "stateMutability": "nonpayable",
      "type": "function"
    },
    {
      "inputs": [
        {
          "internalType": "address",
          "name": "",
          "type": "address"
        }
      ],
      "name": "voters",
      "outputs": [
        {
          "internalType": "bool",
          "name": "isRegistered",
          "type": "bool"
        },
        {
          "internalType": "bool",
          "name": "hasVoted",
          "type": "bool"
        },
        {
          "internalType": "uint64",
          "name": "lastCycleVoted",
          "type": "uint64"
        },
        {
          "internalType": "uint256",
          "name": "votedProposalId",
          "type": "uint256"
        }
      ],
      "stateMutability": "view",
      "type": "function"
    },
    {
      "inputs": [],
      "name": "workflowStatus",
      "outputs": [
        {
          "internalType": "enum Voting.WorkflowStatus",
          "name": "",
          "type": "uint8"
        }
      ],
      "stateMutability": "view",
      "type": "function"
    }
  ],
  "bytecode": "0x60806040526000805460ff60a01b19169055348015601c57600080fd5b503380604257604051631e4fbdf760e01b81526000600482015260240160405180910390fd5b6049816089565b506040805160808101825260008082526014602083015291810182905260600152600380546001600160701b0319166814000000000000000017905560d9565b600080546001600160a01b038381166001600160a01b0319831681178455604051919092169283917f8be0079c531659141344cd1fd0a4f28419497f9722a3daafe3b4186f6b6457e09190a35050565b611c42806100e86000396000f3fe608060405234801561001057600080fd5b50600436106101225760003560e01c8063a3ec138d116100a8578063a3ec138d1461021b578063a513462014610293578063a7bfab16146102a8578063c7038a4e146102b0578063c88af42f146102b8578063d4f50f98146102c0578063d9b4ae2a14610395578063ee74c6781461039d578063f2fde38b146103a5578063f75d64a6146103b8578063f9b137d7146103ca57600080fd5b80630121b93f14610127578063013cf08b1461013c5780631f4dfa9e1461016757806323d1c95e14610182578063378a21781461019557806338db6dd31461019d57806362564c48146101b0578063715018a6146101c55780638da5cb5b146101cd5780638f32d59b146101e2578063a1edffa2146101fa575b600080fd5b61013a61013536600461146d565b61043a565b005b61014f61014a36600461146d565b610673565b60405161015e939291906114cc565b60405180910390f35b600354600160601b900460ff1660405190815260200161015e565b61013a6101903660046115a5565b6107bd565b61013a610954565b61013a6101ab36600461160c565b610b9e565b6101b8610ca4565b60405161015e9190611681565b61013a610e31565b6101d5610e45565b60405161015e91906116e6565b6101ea610e54565b604051901515815260200161015e565b60005461020e90600160a01b900460ff1681565b60405161015e9190611732565b61026261022936600461160c565b6002602052600090815260409020805460019091015460ff80831692610100810490911691620100009091046001600160401b03169084565b60405161015e9493929190931515845291151560208401526001600160401b03166040830152606082015260800190565b61029b610e77565b60405161015e9190611746565b61013a611071565b61013a6110ff565b61013a6111cc565b6103556102ce36600461160c565b604080516080810182526000808252602082018190529181018290526060810191909152506001600160a01b03166000908152600260209081526040918290208251608081018452815460ff80821615158352610100820416151593820193909352620100009092046001600160401b031692820192909252600190910154606082015290565b60405161015e91908151151581526020808301511515908201526040808301516001600160401b0316908201526060918201519181019190915260800190565b61013a611250565b61013a6112ad565b61013a6103b336600461160c565b6113ad565b600054600160a01b900460ff1661020e565b600354610401906001600160401b0381169063ffffffff600160401b8204169060ff600160601b8204811691600160681b90041684565b604080516001600160401b03909516855263ffffffff909316602085015260ff909116918301919091521515606082015260800161015e565b3360009081526002602052604090205460ff166104725760405162461bcd60e51b815260040161046990611759565b60405180910390fd5b60035460016001600160401b0390911611156104e0576003546104a0906001906001600160401b03166117a0565b336000908152600260205260409020546201000090046001600160401b039081169116146104e05760405162461bcd60e51b8152600401610469906117bf565b6003600054600160a01b900460ff166005811115610500576105006116fa565b1461051d5760405162461bcd60e51b815260040161046990611801565b60015481106105615760405162461bcd60e51b815260206004820152601060248201526f125b9d985b1a59081c1c9bdc1bdcd85b60821b6044820152606401610469565b3360009081526002602052604090208054610100900460ff16156105c05760405162461bcd60e51b8152602060048201526016602482015275165bdd481a185d9948185b1c9958591e481d9bdd195960521b6044820152606401610469565b805461010061ff0019821681178355600180840185905560035469ffffffffffffffffff00199093166001600160401b0390931662010000029290921717825580548390811061061257610612611835565b6000918252602082206002600390920201018054916106308361184b565b909155505060408051338152602081018490527f4d99b957a2bc29a30ebd96a7be8e68fe50a3c701db28a91436490b7d53870ca491015b60405180910390a15050565b6001818154811061068357600080fd5b90600052602060002090600302016000915090508060000180546106a690611864565b80601f01602080910402602001604051908101604052809291908181526020018280546106d290611864565b801561071f5780601f106106f45761010080835404028352916020019161071f565b820191906000526020600020905b81548152906001019060200180831161070257829003601f168201915b50505050509080600101805461073490611864565b80601f016020809104026020016040519081016040528092919081815260200182805461076090611864565b80156107ad5780601f10610782576101008083540402835291602001916107ad565b820191906000526020600020905b81548152906001019060200180831161079057829003601f168201915b5050505050908060020154905083565b3360009081526002602052604090205460ff166107ec5760405162461bcd60e51b815260040161046990611759565b60035460016001600160401b03909116111561085a5760035461081a906001906001600160401b03166117a0565b336000908152600260205260409020546201000090046001600160401b0390811691161461085a5760405162461bcd60e51b8152600401610469906117bf565b6001600054600160a01b900460ff16600581111561087a5761087a6116fa565b146108975760405162461bcd60e51b81526004016104699061189e565b604080516060810182528381526020810183905260009181018290526001805480820182559252805190916003027fb10e2d527612073b26eecdfd717e6a320cf44b4afac2b0732d9fcbe2b7fa0cf6019081906108f4908261192f565b5060208201516001820190610909908261192f565b5060409190910151600290910155600180547f92e393e9b54e2f801d3ea4beb0c5e71a21cc34a5d34b77d0fb8a3aa1650dc18f91610946916119ed565b604051908152602001610667565b61095c6113eb565b6004600054600160a01b900460ff16600581111561097c5761097c6116fa565b146109c45760405162461bcd60e51b8152602060048201526018602482015277159bdd1a5b99c81cd95cdcda5bdb881b9bdd08195b99195960421b6044820152606401610469565b6000806000805b60015463ffffffff82161015610a88578260018263ffffffff16815481106109f5576109f5611835565b9060005260206000209060030201600201541115610a3e5760018163ffffffff1681548110610a2657610a26611835565b90600052602060002090600302016002015492508091505b60018163ffffffff1681548110610a5757610a57611835565b90600052602060002090600302016002015484610a749190611a00565b935080610a8081611a13565b9150506109cb565b50600354606490610aa390600160601b900460ff1685611a38565b610aad9190611a4f565b8310610ad6576003805463ffffffff60401b1916600160401b63ffffffff841602179055610ae7565b6003805463ffffffff60401b191690555b6000805460ff60a01b1916600560a01b1790819055604051600080516020611bed83398151915291610b2691600491600160a01b900460ff1690611a71565b60405180910390a160038054600180547fc2e265623633c1359cddd2d2c6c647b1feb3345e52d3f42fd0b6c37fcafec6529392600160401b900463ffffffff16908110610b7557610b75611835565b9060005260206000209060030201604051610b91929190611b0f565b60405180910390a1505050565b610ba66113eb565b60008054600160a01b900460ff166005811115610bc557610bc56116fa565b14610be25760405162461bcd60e51b815260040161046990611b95565b6001600160a01b03811660009081526002602052604090205460ff1615610c465760405162461bcd60e51b8152602060048201526018602482015277159bdd195c88185b1c9958591e481c9959da5cdd195c995960421b6044820152606401610469565b6001600160a01b03811660009081526002602052604090819020805460ff19166001179055517fb6be2187d059cc2a55fe29e0e503b566e1e0f8c8780096e185429350acffd3dd90610c999083906116e6565b60405180910390a150565b60606001805480602002602001604051908101604052809291908181526020016000905b82821015610e285783829060005260206000209060030201604051806060016040529081600082018054610cfb90611864565b80601f0160208091040260200160405190810160405280929190818152602001828054610d2790611864565b8015610d745780601f10610d4957610100808354040283529160200191610d74565b820191906000526020600020905b815481529060010190602001808311610d5757829003601f168201915b50505050508152602001600182018054610d8d90611864565b80601f0160208091040260200160405190810160405280929190818152602001828054610db990611864565b8015610e065780601f10610ddb57610100808354040283529160200191610e06565b820191906000526020600020905b815481529060010190602001808311610de957829003601f168201915b5050505050815260200160028201548152505081526020019060010190610cc8565b50505050905090565b610e396113eb565b610e43600061141d565b565b6000546001600160a01b031690565b6000610e5e610e45565b6001600160a01b0316336001600160a01b031614905090565b610e9b60405180606001604052806060815260200160608152602001600081525090565b6005600054600160a01b900460ff166005811115610ebb57610ebb6116fa565b14610f005760405162461bcd60e51b8152602060048201526015602482015274159bdd195cc81b9bdd081d185b1b1a5959081e595d605a1b6044820152606401610469565b600354600180549091600160401b900463ffffffff16908110610f2557610f25611835565b9060005260206000209060030201604051806060016040529081600082018054610f4e90611864565b80601f0160208091040260200160405190810160405280929190818152602001828054610f7a90611864565b8015610fc75780601f10610f9c57610100808354040283529160200191610fc7565b820191906000526020600020905b815481529060010190602001808311610faa57829003601f168201915b50505050508152602001600182018054610fe090611864565b80601f016020809104026020016040519081016040528092919081815260200182805461100c90611864565b80156110595780601f1061102e57610100808354040283529160200191611059565b820191906000526020600020905b81548152906001019060200180831161103c57829003601f168201915b50505050508152602001600282015481525050905090565b6110796113eb565b6003600054600160a01b900460ff166005811115611099576110996116fa565b146110b65760405162461bcd60e51b815260040161046990611801565b6000805460ff60a01b1916600160a21b1790819055604051600080516020611bed833981519152916110f591600391600160a01b900460ff1690611a71565b60405180910390a1565b6111076113eb565b60008054600160a01b900460ff166005811115611126576111266116fa565b146111835760405162461bcd60e51b815260206004820152602760248201527f43616e6e6f742073746172742070726f706f73616c7320726567697374726174604482015266696f6e206e6f7760c81b6064820152608401610469565b600080546001919060ff60a01b1916600160a01b835b0217905550600080516020611bed83398151915260008060149054906101000a900460ff166040516110f5929190611a71565b6111d46113eb565b6001600054600160a01b900460ff1660058111156111f4576111f46116fa565b146112115760405162461bcd60e51b81526004016104699061189e565b6000805460ff60a01b1916600160a11b1790819055604051600080516020611bed833981519152916110f591600191600160a01b900460ff1690611a71565b6112586113eb565b6005600054600160a01b900460ff166005811115611278576112786116fa565b146112955760405162461bcd60e51b815260040161046990611b95565b60008054819060ff60a01b1916600160a01b82611199565b6112b56113eb565b6002600054600160a01b900460ff1660058111156112d5576112d56116fa565b146113225760405162461bcd60e51b815260206004820181905260248201527f50726f706f73616c7320726567697374726174696f6e206e6f7420656e6465646044820152606401610469565b600380546001600160401b031681600061133b83611bca565b82546001600160401b039182166101009390930a928302919092021990911617905550805465ff00ffffffff60401b191681556000805460ff60a01b1916600360a01b1790819055604051600080516020611bed83398151915291610c9991600291600160a01b900460ff1690611a71565b6113b56113eb565b6001600160a01b0381166113df576000604051631e4fbdf760e01b815260040161046991906116e6565b6113e88161141d565b50565b336113f4610e45565b6001600160a01b031614610e43573360405163118cdaa760e01b815260040161046991906116e6565b600080546001600160a01b038381166001600160a01b0319831681178455604051919092169283917f8be0079c531659141344cd1fd0a4f28419497f9722a3daafe3b4186f6b6457e09190a35050565b60006020828403121561147f57600080fd5b5035919050565b6000815180845260005b818110156114ac57602081850181015186830182015201611490565b506000602082860101526020601f19601f83011685010191505092915050565b6060815260006114df6060830186611486565b82810360208401526114f18186611486565b915050826040830152949350505050565b634e487b7160e01b600052604160045260246000fd5b600082601f83011261152957600080fd5b81356001600160401b0381111561154257611542611502565b604051601f8201601f19908116603f011681016001600160401b038111828210171561157057611570611502565b60405281815283820160200185101561158857600080fd5b816020850160208301376000918101602001919091529392505050565b600080604083850312156115b857600080fd5b82356001600160401b038111156115ce57600080fd5b6115da85828601611518565b92505060208301356001600160401b038111156115f657600080fd5b61160285828601611518565b9150509250929050565b60006020828403121561161e57600080fd5b81356001600160a01b038116811461163557600080fd5b9392505050565b60008151606084526116516060850182611486565b90506020830151848203602086015261166a8282611486565b915050604083015160408501528091505092915050565b6000602082016020835280845180835260408501915060408160051b86010192506020860160005b828110156116da57603f198786030184526116c585835161163c565b945060209384019391909101906001016116a9565b50929695505050505050565b6001600160a01b0391909116815260200190565b634e487b7160e01b600052602160045260246000fd5b6006811061172e57634e487b7160e01b600052602160045260246000fd5b9052565b602081016117408284611710565b92915050565b602081526000611635602083018461163c565b602080825260179082015276159bdd195c881a5cc81b9bdd081c9959da5cdd195c9959604a1b604082015260600190565b634e487b7160e01b600052601160045260246000fd5b6001600160401b0382811682821603908111156117405761174061178a565b60208082526022908201527f4e6f7420656c696769626c6520746f20766f746520696e2074686973206379636040820152616c6560f01b606082015260800190565b6020808252601a9082015279159bdd1a5b99c81cd95cdcda5bdb881b9bdd081cdd185c9d195960321b604082015260600190565b634e487b7160e01b600052603260045260246000fd5b60006001820161185d5761185d61178a565b5060010190565b600181811c9082168061187857607f821691505b60208210810361189857634e487b7160e01b600052602260045260246000fd5b50919050565b60208082526022908201527f50726f706f73616c7320726567697374726174696f6e206e6f74207374617274604082015261195960f21b606082015260800190565b601f82111561192a57806000526020600020601f840160051c810160208510156119075750805b601f840160051c820191505b818110156119275760008155600101611913565b50505b505050565b81516001600160401b0381111561194857611948611502565b61195c816119568454611864565b846118e0565b6020601f82116001811461199057600083156119785750848201515b600019600385901b1c1916600184901b178455611927565b600084815260208120601f198516915b828110156119c057878501518255602094850194600190920191016119a0565b50848210156119de5786840151600019600387901b60f8161c191681555b50505050600190811b01905550565b818103818111156117405761174061178a565b808201808211156117405761174061178a565b600063ffffffff821663ffffffff8103611a2f57611a2f61178a565b60010192915050565b80820281158282048414176117405761174061178a565b600082611a6c57634e487b7160e01b600052601260045260246000fd5b500490565b60408101611a7f8285611710565b6116356020830184611710565b60008154611a9981611864565b808552600182168015611ab35760018114611acf57611b06565b60ff1983166020870152602082151560051b8701019350611b06565b84600052602060002060005b83811015611afd5781546020828a010152600182019150602081019050611adb565b87016020019450505b50505092915050565b600083546001600160401b038116835263ffffffff8160401c16602084015260ff8160601c16604084015260ff8160681c16151560608401525060a06080830152606060a0830152611b65610100830184611a8c565b828103609f190160c0840152611b7e8160018601611a8c565b9050600284015460e0840152809150509392505050565b6020808252601b908201527a2b37ba32b9103932b3b4b9ba3930ba34b7b7103737ba1037b832b760291b604082015260600190565b60006001600160401b0382166001600160401b038103611a2f57611a2f61178a56fe0a97a4ee45751e2abf3e4fc8946939630b11b371ea8ae39ccdc3056e98f5cc3fa26469706673582212201f6c72d4c269e1520f7746b5a0050c60aaeeb3ac8251d5ea022bb43e198dd97364736f6c634300081c0033",
  "linkReferences": {},
  "deployedLinkReferences": {}
}